:020000040000FA
:04000000FEEFFFF020
:020000040001F9
:10FF520012001200120001EE01F1120EEE6AE80622
:10FF6200FDE10001D1EFFFF0C00ECE6E000EC66EB5
:10FF7200000E0401006FC768000E086F1200000E29
:10FF82000D6E000E0E6E000E0F6E000E106E000E45
:10FF9200096E000E0A6E000E0B6E000E0C6E120041
:10FFA200088EA9ECFFF0C0ECFFF0B5ECFFF0ABEC73
:10FFB200FFF0E2ECFFF0AAECFFF0DAEFFFF0FEEF69
:10FFC200FFF01150D8A4E8EFFFF0EAEFFFF0FAEFEC
:10FFD200FFF0CFAAEFEFFFF0F1EFFFF0FAEFFFF043
:10FFE200010E0126000E02220322042201503F0BC1
:0EFFF200CE12CF50200B116E1200ACEFFFF0BC
:020000040020DA
:10000000FF0FFF0FFF0FFF0FFF0FFF0FFF0FFF0F80
:10001000FF0FFF0FFF0FFF0FFF0FFF0FFF0FFF0F70
:020000040030CA
:0A0000008CFEFFFC9FFFFFFFFFFFD7
:00000001FF
