:020000040000FA
:04000000FEEFFFF020
:020000040001F9
:10FF480012001200120001EE01F1120EEE6AE8062C
:10FF5800FDE10001CCEFFFF0C00ECE6E000EC66EC4
:10FF6800000E0401006FC768000E086F1200000E33
:10FF78000D6E000E0E6E000E0F6E000E106E000E4F
:10FF8800096E000E0A6E000E0B6E000E0C6E12004B
:10FF9800088EA4ECFFF0BBECFFF0B0ECFFF0A6EC91
:10FFA800FFF0DDECFFF0A5ECFFF0D5EFFFF0FEEF82
:10FFB800FFF01150D8A4E3EFFFF0E5EFFFF0FAEF00
:10FFC800FFF0CFAAEAEFFFF0ECEFFFF0FAEFFFF057
:10FFD800010E0126000E02220322042201C513F598
:10FFE8003F0E1316CE50C00B1310CE6ECF50200B01
:08FFF800116E1200A7EFFFF0EB
:020000040020DA
:10000000FF0FFF0FFF0FFF0FFF0FFF0FFF0FFF0F80
:10001000FF0FFF0FFF0FFF0FFF0FFF0FFF0FFF0F70
:020000040030CA
:0A0000008CFEFFFC9FFFFFFFFFFFD7
:00000001FF
