:020000040000FA
:04000000FEEFFFF020
:020000040001F9
:10FEC20012001200900E03011A6F540E1B6F1200E3
:10FED200C00ECE6E000EC66E000E0401006F120040
:10FEE2000001020408102021222428303132343843
:10FEF200393A3C3D3E3F000E1F6E000E206E000E52
:10FF0200216E000E226E000E1B6E000E1C6E000E85
:10FF12001D6E000E1E6E120003011A9F261C286E13
:10FF2200271C296E29C528F5296A2850196F2650E1
:10FF3200FF0A186FB19E1A8F1200E20EF66EFE0EC5
:10FF4200F76E010EF86E01EE01F110EE16F00900E7
:10FF5200F5C4EEF4E550E150FAE101EE17F10F0EAF
:10FF6200EE6AE806FDE10001B7EFFFF01A8E61ECE0
:10FF7200FFF07CECFFF069ECFFF063ECFFF0D7ECF4
:10FF8200FFF0BE9E62ECFFF0C30E276E500E266E8F
:10FF92008DECFFF0B1AED0EFFFF0D2EFFFF0CBEF80
:10FFA200FFF0BE8EC0EFFFF0FEEFFFF02350D8A4AB
:10FFB200DDEFFFF0DFEFFFF0EFEFFFF0160E246052
:10FFC200E5EFFFF0E7EFFFF0EAEFFFF0242AECEFB6
:10FFD200FFF0000E246E232AF1EFFFF0000E236ED5
:10FFE200010E2424D96EDA6A050EDA22DF50266E5B
:0EFFF200BE50C00B2610BE6E12009EEFFFF038
:020000040020DA
:10000000FF0FFF0FFF0FFF0FFF0FFF0FFF0FFF0F80
:10001000FF0FFF0FFF0FFF0FFF0FFF0FFF0FFF0F70
:020000040030CA
:0A0000008CFEFFFC9FFFFFFFFFFFD7
:00000001FF
