:020000040000FA
:04000000FEEFFFF020
:020000040001F9
:10FF5800120012001200000ECE6E000EC66E000EC9
:10FF68000401006F120001EE01F10D0EEE6AE806C1
:10FF7800FDE10001D1EFFFF0000E096E000E0A6EE0
:10FF8800000E0B6E000E0C6E000E056E000E066E57
:10FF9800000E076E000E086E1200048EACECFFF027
:10FFA800C0ECFFF0AFECFFF0AEECFFF0E2ECFFF0DE
:10FFB800ADECFFF0DAEFFFF0FEEFFFF0120E0E6E81
:10FFC8005C0E0F6E040E106E000E116E0E06000E03
:10FFD8000F5A105A115A0E500F1010101110D8A4A1
:10FFE800F8EFFFF0FAEFFFF0EAEFFFF0BE50010A7A
:08FFF800BE6E1200B7EFFFF02E
:020000040020DA
:10000000FF0FFF0FFF0FFF0FFF0FFF0FFF0FFF0F80
:10001000FF0FFF0FFF0FFF0FFF0FFF0FFF0FFF0F70
:020000040030CA
:0A0000008CFEFFFC9FFFFFFFFFFFD7
:00000001FF
