:020000040000FA
:04000000FEEFFFF020
:020000040001F9
:10FD940012001200120001EE01F11B0EEE6AE806D9
:10FDA400FDE10001F2EFFEF0C00ECE6E000EC66E55
:10FDB400000E0401006FC768000E086F1200000EE9
:10FDC400156E000E166E000E176E000E186E000EE5
:10FDD400116E000E126E000E136E000E146E1200E1
:10FDE400108ECAECFEF0E1ECFEF0D6ECFEF0CCECAA
:10FDF400FEF003ECFFF0CBECFEF0FBEFFEF0FEEFC9
:10FE0400FFF0C00E206E2C0E216E000E226E000E2E
:10FE1400236E2006000E215A225A235A2050211004
:10FE240022102310D8A419EFFFF01BEFFFF00BEF03
:10FE3400FFF01950D8A421EFFFF023EFFFF038EFC3
:10FE4400FFF0CFAA28EFFFF02AEFFFF038EFFFF022
:10FE5400010E0926000E0A220B220C2209C51CF5EC
:10FE64003F0E1C16CE50C00B1C10CE6E200E19185F
:10FE7400D8A43FEFFFF041EFFFF082EFFFF0CFAAED
:10FE840046EFFFF048EFFFF082EFFFF0010E05268A
:10FE9400000E06220722082208500710061009E166
:10FEA400650E055CD8A059EFFFF05BEFFFF08AEF19
:10FEB400FFF01F0E05141C6E000E06141D6E000EBE
:10FEC40007141E6E000E08141F6E1C501D101E1009
:10FED4001F10D8A470EFFFF072EFFFF08AEFFFF06D
:10FEE400010E0926000E0A220B220C2209C51CF55C
:10FEF4003F0E1C16CE50C00B1C10CE6E8AEFFFF0C6
:10FF0400000E056E000E066E000E076E000E086EE3
:10FF14001A50D8A490EFFFF092EFFFF0A6EFFFF095
:10FF2400CFA697EFFFF099EFFFF0A6EFFFF00906D9
:10FF3400000E0A5A0B5A0C5A09C51CF53F0E1C1622
:10FF4400CE50C00B1C10CE6E080E1A18D8A4ADEFFC
:10FF5400FFF0AFEFFFF0EFEFFFF0CFA6B4EFFFF04D
:10FF6400B6EFFFF0EFEFFFF0010E0126000E0222C4
:10FF74000322042204500310021009E1650E015CFF
:10FF8400D8A0C7EFFFF0C9EFFFF0F7EFFFF01F0EA7
:10FF940001141C6E000E02141D6E000E03141E6E5E
:10FFA400000E04141F6E1C501D101E101F10D8A428
:10FFB400DEEFFFF0E0EFFFF0F7EFFFF00906000ED1
:10FFC4000A5A0B5A0C5A09C51CF53F0E1C16CE5082
:10FFD400C00B1C10CE6EF7EFFFF0000E016E000E8A
:10FFE400026E000E036E000E046ECF50080B1A6EE4
:0CFFF400CF50200B196E1200CDEFFEF074
:020000040020DA
:10000000FF0FFF0FFF0FFF0FFF0FFF0FFF0FFF0F80
:10001000FF0FFF0FFF0FFF0FFF0FFF0FFF0FFF0F70
:020000040030CA
:0A0000008CFEFFFC9FFFFFFFFFFFD7
:00000001FF
